{
  "contractName": "SafeMath",
  "abi": [
    {
      "constant": true,
      "inputs": [
        {
          "name": "a",
          "type": "uint256"
        },
        {
          "name": "b",
          "type": "uint256"
        }
      ],
      "name": "safeAdd",
      "outputs": [
        {
          "name": "c",
          "type": "uint256"
        }
      ],
      "payable": false,
      "stateMutability": "pure",
      "type": "function"
    },
    {
      "constant": true,
      "inputs": [
        {
          "name": "a",
          "type": "uint256"
        },
        {
          "name": "b",
          "type": "uint256"
        }
      ],
      "name": "safeSub",
      "outputs": [
        {
          "name": "c",
          "type": "uint256"
        }
      ],
      "payable": false,
      "stateMutability": "pure",
      "type": "function"
    },
    {
      "constant": true,
      "inputs": [
        {
          "name": "a",
          "type": "uint256"
        },
        {
          "name": "b",
          "type": "uint256"
        }
      ],
      "name": "safeMul",
      "outputs": [
        {
          "name": "c",
          "type": "uint256"
        }
      ],
      "payable": false,
      "stateMutability": "pure",
      "type": "function"
    },
    {
      "constant": true,
      "inputs": [
        {
          "name": "a",
          "type": "uint256"
        },
        {
          "name": "b",
          "type": "uint256"
        }
      ],
      "name": "safeDiv",
      "outputs": [
        {
          "name": "c",
          "type": "uint256"
        }
      ],
      "payable": false,
      "stateMutability": "pure",
      "type": "function"
    }
  ],
  "bytecode": "0x608060405234801561001057600080fd5b5061024c806100206000396000f300608060405260043610610062576000357c0100000000000000000000000000000000000000000000000000000000900463ffffffff168063a293d1e814610067578063b5931f7c146100b2578063d05c78da146100fd578063e6cb901314610148575b600080fd5b34801561007357600080fd5b5061009c6004803603810190808035906020019092919080359060200190929190505050610193565b6040518082815260200191505060405180910390f35b3480156100be57600080fd5b506100e760048036038101908080359060200190929190803590602001909291905050506101af565b6040518082815260200191505060405180910390f35b34801561010957600080fd5b5061013260048036038101908080359060200190929190803590602001909291905050506101d3565b6040518082815260200191505060405180910390f35b34801561015457600080fd5b5061017d6004803603810190808035906020019092919080359060200190929190505050610204565b6040518082815260200191505060405180910390f35b60008282111515156101a457600080fd5b818303905092915050565b600080821115156101bf57600080fd5b81838115156101ca57fe5b04905092915050565b6000818302905060008314806101f357508183828115156101f057fe5b04145b15156101fe57600080fd5b92915050565b6000818301905082811015151561021a57600080fd5b929150505600a165627a7a7230582026b156f72016b6f7c5702b22e36ca476866ea604572bba661c3a0eccc194b9b60029",
  "source": "pragma solidity ^0.4.24;\n \n//Safe Math Interface\n \ncontract SafeMath {\n \n    function safeAdd(uint a, uint b) public pure returns (uint c) {\n        c = a + b;\n        require(c >= a);\n    }\n \n    function safeSub(uint a, uint b) public pure returns (uint c) {\n        require(b <= a);\n        c = a - b;\n    }\n \n    function safeMul(uint a, uint b) public pure returns (uint c) {\n        c = a * b;\n        require(a == 0 || c / a == b);\n    }\n \n    function safeDiv(uint a, uint b) public pure returns (uint c) {\n        require(b > 0);\n        c = a / b;\n    }\n}\n \n \n//ERC Token Standard #20 Interface\n \ncontract ERC20Interface {\n    function totalSupply() public constant returns (uint);\n    function balanceOf(address tokenOwner) public constant returns (uint balance);\n    function allowance(address tokenOwner, address spender) public constant returns (uint remaining);\n    function transfer(address to, uint tokens) public returns (bool success);\n    function approve(address spender, uint tokens) public returns (bool success);\n    function transferFrom(address from, address to, uint tokens) public returns (bool success);\n \n    event Transfer(address indexed from, address indexed to, uint tokens);\n    event Approval(address indexed tokenOwner, address indexed spender, uint tokens);\n}\n \n \n//Contract function to receive approval and execute function in one call\n \ncontract ApproveAndCallFallBack {\n    function receiveApproval(address from, uint256 tokens, address token, bytes data) public;\n}\n \n//Actual token contract\n \ncontract HODE is ERC20Interface, SafeMath {\n    string public symbol;\n    string public  name;\n    uint8 public decimals;\n    uint public _totalSupply;\n \n    mapping(address => uint) balances;\n    mapping(address => mapping(address => uint)) allowed;\n \n    constructor() public {\n        symbol = \"HODE\";\n        name = \"HODE Coin\";\n        decimals = 18;\n        _totalSupply = 1000000000000000000;\n        balances[0xc1Ab6c8B1Cad487Da4FfD6375D1E617E66Ade8bE] = _totalSupply;\n        emit Transfer(address(0), 0xc1Ab6c8B1Cad487Da4FfD6375D1E617E66Ade8bE, _totalSupply);\n    }\n \n    function totalSupply() public constant returns (uint) {\n        return _totalSupply  - balances[address(0)];\n    }\n \n    function balanceOf(address tokenOwner) public constant returns (uint balance) {\n        return balances[tokenOwner];\n    }\n \n    function transfer(address to, uint tokens) public returns (bool success) {\n        balances[msg.sender] = safeSub(balances[msg.sender], tokens);\n        balances[to] = safeAdd(balances[to], tokens);\n        emit Transfer(msg.sender, to, tokens);\n        return true;\n    }\n \n    function approve(address spender, uint tokens) public returns (bool success) {\n        allowed[msg.sender][spender] = tokens;\n        emit Approval(msg.sender, spender, tokens);\n        return true;\n    }\n \n    function transferFrom(address from, address to, uint tokens) public returns (bool success) {\n        balances[from] = safeSub(balances[from], tokens);\n        allowed[from][msg.sender] = safeSub(allowed[from][msg.sender], tokens);\n        balances[to] = safeAdd(balances[to], tokens);\n        emit Transfer(from, to, tokens);\n        return true;\n    }\n \n    function allowance(address tokenOwner, address spender) public constant returns (uint remaining) {\n        return allowed[tokenOwner][spender];\n    }\n \n    function approveAndCall(address spender, uint tokens, bytes data) public returns (bool success) {\n        allowed[msg.sender][spender] = tokens;\n        emit Approval(msg.sender, spender, tokens);\n        ApproveAndCallFallBack(spender).receiveApproval(msg.sender, tokens, this, data);\n        return true;\n    }\n \n    function () public payable {\n        revert();\n    }\n}",
  "sourcePath": "/Users/thinnakritknoo-aksorn/Documents/Project/hode/hode-core/contracts/HODE.sol",
  "compiler": {
    "name": "solc",
    "version": "0.4.24+commit.e67f0147.Emscripten.clang"
  },
  "schemaVersion": "3.4.1",
  "updatedAt": "2021-05-21T15:24:48.875Z",
  "devdoc": {
    "methods": {}
  },
  "userdoc": {
    "methods": {}
  }
}